{
  "contractName": "ERC223Crowdsale",
  "abi": [
    {
      "constant": true,
      "inputs": [
        {
          "name": "",
          "type": "address"
        }
      ],
      "name": "senderLimit",
      "outputs": [
        {
          "name": "",
          "type": "uint256"
        }
      ],
      "payable": false,
      "stateMutability": "view",
      "type": "function"
    },
    {
      "constant": true,
      "inputs": [],
      "name": "tokensSold",
      "outputs": [
        {
          "name": "",
          "type": "uint256"
        }
      ],
      "payable": false,
      "stateMutability": "view",
      "type": "function"
    },
    {
      "constant": false,
      "inputs": [],
      "name": "acceptOwnership",
      "outputs": [],
      "payable": false,
      "stateMutability": "nonpayable",
      "type": "function"
    },
    {
      "constant": true,
      "inputs": [],
      "name": "owner",
      "outputs": [
        {
          "name": "",
          "type": "address"
        }
      ],
      "payable": false,
      "stateMutability": "view",
      "type": "function"
    },
    {
      "constant": true,
      "inputs": [],
      "name": "totalRaised",
      "outputs": [
        {
          "name": "",
          "type": "uint256"
        }
      ],
      "payable": false,
      "stateMutability": "view",
      "type": "function"
    },
    {
      "constant": true,
      "inputs": [],
      "name": "newOwner",
      "outputs": [
        {
          "name": "",
          "type": "address"
        }
      ],
      "payable": false,
      "stateMutability": "view",
      "type": "function"
    },
    {
      "constant": false,
      "inputs": [
        {
          "name": "_newOwner",
          "type": "address"
        }
      ],
      "name": "transferOwnership",
      "outputs": [],
      "payable": false,
      "stateMutability": "nonpayable",
      "type": "function"
    },
    {
      "inputs": [
        {
          "name": "_token",
          "type": "address"
        },
        {
          "name": "_wallet",
          "type": "address"
        }
      ],
      "payable": false,
      "stateMutability": "nonpayable",
      "type": "constructor"
    },
    {
      "payable": true,
      "stateMutability": "payable",
      "type": "fallback"
    },
    {
      "anonymous": false,
      "inputs": [
        {
          "indexed": true,
          "name": "purchaser",
          "type": "address"
        },
        {
          "indexed": false,
          "name": "value",
          "type": "uint256"
        },
        {
          "indexed": false,
          "name": "amount",
          "type": "uint256"
        }
      ],
      "name": "TokensPurchased",
      "type": "event"
    },
    {
      "anonymous": false,
      "inputs": [
        {
          "indexed": false,
          "name": "from",
          "type": "address"
        },
        {
          "indexed": false,
          "name": "value",
          "type": "uint256"
        },
        {
          "indexed": false,
          "name": "data",
          "type": "bytes"
        }
      ],
      "name": "DepositedTokens",
      "type": "event"
    },
    {
      "anonymous": false,
      "inputs": [
        {
          "indexed": true,
          "name": "_from",
          "type": "address"
        },
        {
          "indexed": true,
          "name": "_to",
          "type": "address"
        }
      ],
      "name": "OwnershipTransferred",
      "type": "event"
    },
    {
      "constant": true,
      "inputs": [],
      "name": "icoAddress",
      "outputs": [
        {
          "name": "",
          "type": "address"
        }
      ],
      "payable": false,
      "stateMutability": "view",
      "type": "function"
    },
    {
      "constant": true,
      "inputs": [],
      "name": "checkBalance",
      "outputs": [
        {
          "name": "",
          "type": "uint256"
        }
      ],
      "payable": false,
      "stateMutability": "view",
      "type": "function"
    },
    {
      "constant": false,
      "inputs": [
        {
          "name": "userAddress",
          "type": "address"
        },
        {
          "name": "status",
          "type": "bool"
        }
      ],
      "name": "updateKYC",
      "outputs": [
        {
          "name": "",
          "type": "bool"
        }
      ],
      "payable": false,
      "stateMutability": "nonpayable",
      "type": "function"
    },
    {
      "constant": true,
      "inputs": [
        {
          "name": "userAddress",
          "type": "address"
        }
      ],
      "name": "checkKYC",
      "outputs": [
        {
          "name": "",
          "type": "bool"
        }
      ],
      "payable": false,
      "stateMutability": "view",
      "type": "function"
    },
    {
      "constant": false,
      "inputs": [
        {
          "name": "beneficiary",
          "type": "address"
        }
      ],
      "name": "buyTokens",
      "outputs": [],
      "payable": true,
      "stateMutability": "payable",
      "type": "function"
    },
    {
      "constant": false,
      "inputs": [
        {
          "name": "tokenAddress",
          "type": "address"
        },
        {
          "name": "tokens",
          "type": "uint256"
        }
      ],
      "name": "unlockBlockedERC20Tokens",
      "outputs": [
        {
          "name": "success",
          "type": "bool"
        }
      ],
      "payable": false,
      "stateMutability": "nonpayable",
      "type": "function"
    },
    {
      "constant": false,
      "inputs": [
        {
          "name": "_owner",
          "type": "address"
        },
        {
          "name": "tokens",
          "type": "uint256"
        },
        {
          "name": "data",
          "type": "bytes"
        }
      ],
      "name": "tokenFallback",
      "outputs": [],
      "payable": false,
      "stateMutability": "nonpayable",
      "type": "function"
    }
  ],
  "bytecode": "0x608060405234801561001057600080fd5b506040516040806114e88339810180604052604081101561003057600080fd5b810190808051906020019092919080519060200190929190505050600160008190555033600160006101000a81548173ffffffffffffffffffffffffffffffffffffffff021916908373ffffffffffffffffffffffffffffffffffffffff160217905550600073ffffffffffffffffffffffffffffffffffffffff168273ffffffffffffffffffffffffffffffffffffffff1614156100ce57600080fd5b600073ffffffffffffffffffffffffffffffffffffffff168173ffffffffffffffffffffffffffffffffffffffff16141561010857600080fd5b81600360006101000a81548173ffffffffffffffffffffffffffffffffffffffff021916908373ffffffffffffffffffffffffffffffffffffffff16021790555080600460006101000a81548173ffffffffffffffffffffffffffffffffffffffff021916908373ffffffffffffffffffffffffffffffffffffffff160217905550505061134d8061019b6000396000f3fe6080604052600436106100fa576000357c0100000000000000000000000000000000000000000000000000000000900480638da5cb5b1161009c578063c71daccb11610076578063c71daccb146104c8578063d4ee1d90146104f3578063ec8ac4d81461054a578063f2fde38b1461058e576100fa565b80638da5cb5b14610354578063c0ee0b8a146103ab578063c5c4744c1461049d576100fa565b8063703a5cf1116100d8578063703a5cf11461020a578063788ce6f21461027d57806379ba5097146102d45780638846594b146102eb576100fa565b806328e7d77d14610105578063300b53c21461016a578063518ab2a8146101df575b610103336105df565b005b34801561011157600080fd5b506101546004803603602081101561012857600080fd5b81019080803573ffffffffffffffffffffffffffffffffffffffff16906020019092919050505061094c565b6040518082815260200191505060405180910390f35b34801561017657600080fd5b506101c56004803603604081101561018d57600080fd5b81019080803573ffffffffffffffffffffffffffffffffffffffff169060200190929190803515159060200190929190505050610964565b604051808215151515815260200191505060405180910390f35b3480156101eb57600080fd5b506101f4610a20565b6040518082815260200191505060405180910390f35b34801561021657600080fd5b506102636004803603604081101561022d57600080fd5b81019080803573ffffffffffffffffffffffffffffffffffffffff16906020019092919080359060200190929190505050610a26565b604051808215151515815260200191505060405180910390f35b34801561028957600080fd5b50610292610b8a565b604051808273ffffffffffffffffffffffffffffffffffffffff1673ffffffffffffffffffffffffffffffffffffffff16815260200191505060405180910390f35b3480156102e057600080fd5b506102e9610b92565b005b3480156102f757600080fd5b5061033a6004803603602081101561030e57600080fd5b81019080803573ffffffffffffffffffffffffffffffffffffffff169060200190929190505050610d31565b604051808215151515815260200191505060405180910390f35b34801561036057600080fd5b50610369610d87565b604051808273ffffffffffffffffffffffffffffffffffffffff1673ffffffffffffffffffffffffffffffffffffffff16815260200191505060405180910390f35b3480156103b757600080fd5b5061049b600480360360608110156103ce57600080fd5b81019080803573ffffffffffffffffffffffffffffffffffffffff169060200190929190803590602001909291908035906020019064010000000081111561041557600080fd5b82018360208201111561042757600080fd5b8035906020019184600183028401116401000000008311171561044957600080fd5b91908080601f016020809104026020016040519081016040528093929190818152602001838380828437600081840152601f19601f820116905080830192505050505050509192919290505050610dad565b005b3480156104a957600080fd5b506104b2610f85565b6040518082815260200191505060405180910390f35b3480156104d457600080fd5b506104dd610f8b565b6040518082815260200191505060405180910390f35b3480156104ff57600080fd5b50610508611088565b604051808273ffffffffffffffffffffffffffffffffffffffff1673ffffffffffffffffffffffffffffffffffffffff16815260200191505060405180910390f35b61058c6004803603602081101561056057600080fd5b81019080803573ffffffffffffffffffffffffffffffffffffffff1690602001909291905050506105df565b005b34801561059a57600080fd5b506105dd600480360360208110156105b157600080fd5b81019080803573ffffffffffffffffffffffffffffffffffffffff1690602001909291905050506110ae565b005b6001600080828254019250508190555060008054905060006105ff610f8b565b141561060a57600080fd5b8173ffffffffffffffffffffffffffffffffffffffff163373ffffffffffffffffffffffffffffffffffffffff161461064257600080fd5b600034905060006105dc820290506106658160065461114c90919063ffffffff16565b6006819055506106808260055461114c90919063ffffffff16565b600581905550610690848261116b565b610698611179565b6106ea82600860008773ffffffffffffffffffffffffffffffffffffffff1673ffffffffffffffffffffffffffffffffffffffff1681526020019081526020016000205461114c90919063ffffffff16565b600860008673ffffffffffffffffffffffffffffffffffffffff1673ffffffffffffffffffffffffffffffffffffffff1681526020019081526020016000208190555060001515600760008673ffffffffffffffffffffffffffffffffffffffff1673ffffffffffffffffffffffffffffffffffffffff16815260200190815260200160002060009054906101000a900460ff16151514156108095767016345785d8a000082101580156107a7575068015af1d78b58c400008211155b80156107fb575068015af1d78b58c40000600860008673ffffffffffffffffffffffffffffffffffffffff1673ffffffffffffffffffffffffffffffffffffffff1681526020019081526020016000205411155b61080457600080fd5b6108e2565b60011515600760008673ffffffffffffffffffffffffffffffffffffffff1673ffffffffffffffffffffffffffffffffffffffff16815260200190815260200160002060009054906101000a900460ff16151514156108e15767016345785d8a00008210158015610883575068056bc75e2d631000008211155b80156108d7575068056bc75e2d63100000600860008673ffffffffffffffffffffffffffffffffffffffff1673ffffffffffffffffffffffffffffffffffffffff1681526020019081526020016000205411155b6108e057600080fd5b5b5b8373ffffffffffffffffffffffffffffffffffffffff167f8fafebcaf9d154343dad25669bfa277f4fbacd7ac6b0c4fed522580e040a0f338383604051808381526020018281526020019250505060405180910390a25050600054811461094857600080fd5b5050565b60086020528060005260406000206000915090505481565b6000600160009054906101000a900473ffffffffffffffffffffffffffffffffffffffff1673ffffffffffffffffffffffffffffffffffffffff163373ffffffffffffffffffffffffffffffffffffffff16146109c057600080fd5b81600760008573ffffffffffffffffffffffffffffffffffffffff1673ffffffffffffffffffffffffffffffffffffffff16815260200190815260200160002060006101000a81548160ff02191690831515021790555081905092915050565b60065481565b6000600160009054906101000a900473ffffffffffffffffffffffffffffffffffffffff1673ffffffffffffffffffffffffffffffffffffffff163373ffffffffffffffffffffffffffffffffffffffff1614610a8257600080fd5b8273ffffffffffffffffffffffffffffffffffffffff1663a9059cbb600160009054906101000a900473ffffffffffffffffffffffffffffffffffffffff16846040518363ffffffff167c0100000000000000000000000000000000000000000000000000000000028152600401808373ffffffffffffffffffffffffffffffffffffffff1673ffffffffffffffffffffffffffffffffffffffff16815260200182815260200192505050602060405180830381600087803b158015610b4757600080fd5b505af1158015610b5b573d6000803e3d6000fd5b505050506040513d6020811015610b7157600080fd5b8101908080519060200190929190505050905092915050565b600030905090565b600260009054906101000a900473ffffffffffffffffffffffffffffffffffffffff1673ffffffffffffffffffffffffffffffffffffffff163373ffffffffffffffffffffffffffffffffffffffff1614610bec57600080fd5b600260009054906101000a900473ffffffffffffffffffffffffffffffffffffffff1673ffffffffffffffffffffffffffffffffffffffff16600160009054906101000a900473ffffffffffffffffffffffffffffffffffffffff1673ffffffffffffffffffffffffffffffffffffffff167f8be0079c531659141344cd1fd0a4f28419497f9722a3daafe3b4186f6b6457e060405160405180910390a3600260009054906101000a900473ffffffffffffffffffffffffffffffffffffffff16600160006101000a81548173ffffffffffffffffffffffffffffffffffffffff021916908373ffffffffffffffffffffffffffffffffffffffff1602179055506000600260006101000a81548173ffffffffffffffffffffffffffffffffffffffff021916908373ffffffffffffffffffffffffffffffffffffffff160217905550565b6000600760008373ffffffffffffffffffffffffffffffffffffffff1673ffffffffffffffffffffffffffffffffffffffff16815260200190815260200160002060009054906101000a900460ff169050919050565b600160009054906101000a900473ffffffffffffffffffffffffffffffffffffffff1681565b60016000808282540192505081905550600080549050600360009054906101000a900473ffffffffffffffffffffffffffffffffffffffff1673ffffffffffffffffffffffffffffffffffffffff163373ffffffffffffffffffffffffffffffffffffffff1614610e1d57600080fd5b8373ffffffffffffffffffffffffffffffffffffffff16600160009054906101000a900473ffffffffffffffffffffffffffffffffffffffff1673ffffffffffffffffffffffffffffffffffffffff1614610e7757600080fd5b7fab50da1e3a86b1585d3d76f23bef9ae7448239e22db53fb8c8c519b33570da6e600160009054906101000a900473ffffffffffffffffffffffffffffffffffffffff168484604051808473ffffffffffffffffffffffffffffffffffffffff1673ffffffffffffffffffffffffffffffffffffffff16815260200183815260200180602001828103825283818151815260200191508051906020019080838360005b83811015610f35578082015181840152602081019050610f1a565b50505050905090810190601f168015610f625780820380516001836020036101000a031916815260200191505b5094505050505060405180910390a16000548114610f7f57600080fd5b50505050565b60055481565b6000600360009054906101000a900473ffffffffffffffffffffffffffffffffffffffff1673ffffffffffffffffffffffffffffffffffffffff166370a08231306040518263ffffffff167c0100000000000000000000000000000000000000000000000000000000028152600401808273ffffffffffffffffffffffffffffffffffffffff1673ffffffffffffffffffffffffffffffffffffffff16815260200191505060206040518083038186803b15801561104857600080fd5b505afa15801561105c573d6000803e3d6000fd5b505050506040513d602081101561107257600080fd5b8101908080519060200190929190505050905090565b600260009054906101000a900473ffffffffffffffffffffffffffffffffffffffff1681565b600160009054906101000a900473ffffffffffffffffffffffffffffffffffffffff1673ffffffffffffffffffffffffffffffffffffffff163373ffffffffffffffffffffffffffffffffffffffff161461110857600080fd5b80600260006101000a81548173ffffffffffffffffffffffffffffffffffffffff021916908373ffffffffffffffffffffffffffffffffffffffff16021790555050565b60008082840190508381101561116157600080fd5b8091505092915050565b61117582826111e4565b5050565b600460009054906101000a900473ffffffffffffffffffffffffffffffffffffffff1673ffffffffffffffffffffffffffffffffffffffff166108fc349081150290604051600060405180830381858888f193505050501580156111e1573d6000803e3d6000fd5b50565b6112318282600360009054906101000a900473ffffffffffffffffffffffffffffffffffffffff1673ffffffffffffffffffffffffffffffffffffffff166112359092919063ffffffff16565b5050565b8273ffffffffffffffffffffffffffffffffffffffff1663a9059cbb83836040518363ffffffff167c0100000000000000000000000000000000000000000000000000000000028152600401808373ffffffffffffffffffffffffffffffffffffffff1673ffffffffffffffffffffffffffffffffffffffff16815260200182815260200192505050602060405180830381600087803b1580156112d857600080fd5b505af11580156112ec573d6000803e3d6000fd5b505050506040513d602081101561130257600080fd5b810190808051906020019092919050505061131c57600080fd5b50505056fea165627a7a72305820b6ba7a7d4ad516b546feed5d0f15b5dd135e9722ff7f4426d110dbe2b7e592790029",
  "source": "pragma solidity 0.5.7;\n\nimport \"./Owned.sol\";\nimport \"./SafeMath.sol\";\nimport \"./SafeERC223.sol\";\nimport \"./ERC223Interface.sol\";\nimport \"./ReentrancyGuard.sol\";\ncontract ERC223Crowdsale is ReentrancyGuard, Owned {\n    using SafeMath for uint256;\n    using SafeERC223 for ERC223Interface;\n\n    // TOKEN INTERFACE,\n    ERC223Interface private token;\n    \n    // PRE-SALE WALLET\n    address payable private wallet;\n\n    // TOTAL ETHER RAISED\n    uint public totalRaised;\n    \n    // TOTAL TOKENS DISTRIBUTED\n    uint public tokensSold;\n\n    // KYC VALIDATION, ADDRESS DEPOSIT LIMIT\n    mapping(address => bool) private _kyc;\n    mapping(address => uint) public senderLimit;\n\n    event TokensPurchased(address indexed purchaser, uint256 value, uint256 amount);\n\n    constructor(ERC223Interface _token, address payable _wallet) public {\n        require(address(_token) != address(0));\n        require(address(_wallet) != address(0));\n        token = _token;\n        wallet = _wallet;\n    }\n    \n    // GET ICO ADDRESS\n    function icoAddress() public view returns(address) {\n        return address(this);\n    }\n    \n    // GET CONTRACT TOTAL TOKENS LEFT FOR SALE\n    function checkBalance() public view returns(uint) {\n        return token.balanceOf(address(this));\n    }\n    \n    // KYC - VALIDATE OR INVALIDATE ADDRESS\n    function updateKYC(address userAddress, bool status) public onlyOwner returns(bool) {\n        _kyc[userAddress] = status;\n        return status;\n    }\n    \n    // KYC - CHECK IF ADDRESS HAS BEEN VALIDATED\n    function checkKYC(address userAddress) public view returns(bool) {\n        return _kyc[userAddress];\n    }\n\n    // PAYABLE FUNCTION\n    function () external payable {\n        // buyTokens();\n        buyTokens(msg.sender);\n    }\n    \n    //----------------------------------------------------\n    // 1,000 LVC == 1 ETH => 1 ETH + 50% BONUS = 1,500 LVC\n    //----------------------------------------------------\n    function buyTokens(address beneficiary) public nonReentrant payable {\n        require(checkBalance() != 0);\n        require(msg.sender == beneficiary);\n        uint256 weiAmount = msg.value;\n        uint tokens;\n        \n        // PRESALE - 50% BONUS\n        tokens = weiAmount * 1500;\n            \n        tokensSold = tokensSold.add(tokens);\n        totalRaised = totalRaised.add(weiAmount);\n            \n        _processPurchase(beneficiary, tokens);\n        _forwardFunds();\n            \n        senderLimit[beneficiary] = senderLimit[beneficiary].add(weiAmount);\n            \n        if(_kyc[beneficiary] == false){\n            require(weiAmount >= .1 ether && weiAmount <= 25 ether && senderLimit[beneficiary] <= 25 ether);\n        } else if (_kyc[beneficiary] == true) {\n            require(weiAmount >= .1 ether && weiAmount <= 100 ether && senderLimit[beneficiary] <= 100 ether);\n        }\n            \n        emit TokensPurchased(beneficiary, weiAmount, tokens);\n    }\n    \n    function _deliverTokens(address beneficiary, uint256 tokenAmount) internal {\n        token.safeTransfer(beneficiary, tokenAmount);\n    }\n    \n    function _processPurchase(address beneficiary, uint256 tokenAmount) internal {\n        _deliverTokens(beneficiary, tokenAmount);\n    }\n    \n    function _forwardFunds() internal {\n        wallet.transfer(msg.value);\n    }\n    \n    function _transferToBonusReserve(address beneficiary, uint256 tokenAmount) internal {\n        _deliverTokens(beneficiary, tokenAmount);\n    }\n    \n    function unlockBlockedERC20Tokens(address tokenAddress, uint tokens) public onlyOwner returns (bool success) {\n        return ERC223Interface(tokenAddress).transfer(owner, tokens);\n    }\n    \n    function tokenFallback(address _owner, uint tokens, bytes memory data) public nonReentrant {\n        require(msg.sender == address(token));\n        require(owner == _owner);\n        emit DepositedTokens(owner, tokens, data);\n    }\n    \n    event DepositedTokens(address from, uint value, bytes data);\n}",
  "sourcePath": "/Users/liberalite/Documents/GitHub/etherslime/contracts/ERC223Crowdsale.sol",
  "compiler": {
    "name": "solc",
    "version": "0.5.7+commit.6da8b019.Emscripten.clang"
  },
  "schemaVersion": "1.1.0",
  "updatedAt": "2019-04-10T15:49:50.424Z"
}